:020000020000FC
:040000000C9422003A
:100040000C9456000FEF0DBF18E01EBF3F065B4F2C
:10005000666D7D077F6F777C395E79711CEF1AB909
:100060001FE317B9289A2098299A219805E005BD21
:1000700003E606BD01E000936E000895789440E029
:1000800050E0443611F00C9441002395293061F47E
:10009000122FF0E0ECE4E10F1491612F1F736074F4
:1000A000660F6BB918B9EDCF2227EBCF00913F0057
:0C00B00003E606BDA89A43950FBF189503
:00000001FF
